{
  "_format": "hh-sol-artifact-1",
  "contractName": "CHTToken",
  "sourceName": "contracts/CHTToken.sol",
  "abi": [
    {
      "inputs": [],
      "stateMutability": "nonpayable",
      "type": "constructor"
    },
    {
      "anonymous": false,
      "inputs": [
        {
          "indexed": true,
          "internalType": "address",
          "name": "owner",
          "type": "address"
        },
        {
          "indexed": true,
          "internalType": "address",
          "name": "spender",
          "type": "address"
        },
        {
          "indexed": false,
          "internalType": "uint256",
          "name": "value",
          "type": "uint256"
        }
      ],
      "name": "Approval",
      "type": "event"
    },
    {
      "anonymous": false,
      "inputs": [
        {
          "indexed": true,
          "internalType": "address",
          "name": "account",
          "type": "address"
        },
        {
          "indexed": false,
          "internalType": "uint256",
          "name": "amount",
          "type": "uint256"
        }
      ],
      "name": "Burn",
      "type": "event"
    },
    {
      "anonymous": false,
      "inputs": [
        {
          "indexed": true,
          "internalType": "address",
          "name": "sender",
          "type": "address"
        },
        {
          "indexed": true,
          "internalType": "address",
          "name": "account",
          "type": "address"
        },
        {
          "indexed": false,
          "internalType": "uint256",
          "name": "amount",
          "type": "uint256"
        }
      ],
      "name": "BurnFrom",
      "type": "event"
    },
    {
      "anonymous": false,
      "inputs": [
        {
          "indexed": true,
          "internalType": "address",
          "name": "delegator",
          "type": "address"
        },
        {
          "indexed": true,
          "internalType": "address",
          "name": "fromDelegate",
          "type": "address"
        },
        {
          "indexed": true,
          "internalType": "address",
          "name": "toDelegate",
          "type": "address"
        }
      ],
      "name": "DelegateChanged",
      "type": "event"
    },
    {
      "anonymous": false,
      "inputs": [
        {
          "indexed": true,
          "internalType": "address",
          "name": "delegate",
          "type": "address"
        },
        {
          "indexed": false,
          "internalType": "uint256",
          "name": "previousBalance",
          "type": "uint256"
        },
        {
          "indexed": false,
          "internalType": "uint256",
          "name": "newBalance",
          "type": "uint256"
        }
      ],
      "name": "DelegateVotesChanged",
      "type": "event"
    },
    {
      "anonymous": false,
      "inputs": [
        {
          "indexed": false,
          "internalType": "uint8",
          "name": "version",
          "type": "uint8"
        }
      ],
      "name": "Initialized",
      "type": "event"
    },
    {
      "anonymous": false,
      "inputs": [
        {
          "indexed": true,
          "internalType": "address",
          "name": "account",
          "type": "address"
        },
        {
          "indexed": false,
          "internalType": "uint256",
          "name": "amount",
          "type": "uint256"
        }
      ],
      "name": "Mint",
      "type": "event"
    },
    {
      "anonymous": false,
      "inputs": [
        {
          "indexed": true,
          "internalType": "address",
          "name": "account",
          "type": "address"
        }
      ],
      "name": "MinterAdded",
      "type": "event"
    },
    {
      "anonymous": false,
      "inputs": [
        {
          "indexed": true,
          "internalType": "address",
          "name": "account",
          "type": "address"
        }
      ],
      "name": "MinterRemoved",
      "type": "event"
    },
    {
      "anonymous": false,
      "inputs": [
        {
          "indexed": true,
          "internalType": "address",
          "name": "stakingContract",
          "type": "address"
        }
      ],
      "name": "StakingContractSet",
      "type": "event"
    },
    {
      "anonymous": false,
      "inputs": [
        {
          "indexed": true,
          "internalType": "address",
          "name": "from",
          "type": "address"
        },
        {
          "indexed": true,
          "internalType": "address",
          "name": "to",
          "type": "address"
        },
        {
          "indexed": false,
          "internalType": "uint256",
          "name": "value",
          "type": "uint256"
        }
      ],
      "name": "Transfer",
      "type": "event"
    },
    {
      "inputs": [],
      "name": "DOMAIN_SEPARATOR",
      "outputs": [
        {
          "internalType": "bytes32",
          "name": "",
          "type": "bytes32"
        }
      ],
      "stateMutability": "view",
      "type": "function"
    },
    {
      "inputs": [],
      "name": "TOTAL_SUPPLY",
      "outputs": [
        {
          "internalType": "uint256",
          "name": "",
          "type": "uint256"
        }
      ],
      "stateMutability": "view",
      "type": "function"
    },
    {
      "inputs": [
        {
          "internalType": "address",
          "name": "_account",
          "type": "address"
        }
      ],
      "name": "addMinter",
      "outputs": [],
      "stateMutability": "nonpayable",
      "type": "function"
    },
    {
      "inputs": [],
      "name": "admin",
      "outputs": [
        {
          "internalType": "address",
          "name": "",
          "type": "address"
        }
      ],
      "stateMutability": "view",
      "type": "function"
    },
    {
      "inputs": [
        {
          "internalType": "address",
          "name": "owner",
          "type": "address"
        },
        {
          "internalType": "address",
          "name": "spender",
          "type": "address"
        }
      ],
      "name": "allowance",
      "outputs": [
        {
          "internalType": "uint256",
          "name": "",
          "type": "uint256"
        }
      ],
      "stateMutability": "view",
      "type": "function"
    },
    {
      "inputs": [
        {
          "internalType": "address",
          "name": "spender",
          "type": "address"
        },
        {
          "internalType": "uint256",
          "name": "amount",
          "type": "uint256"
        }
      ],
      "name": "approve",
      "outputs": [
        {
          "internalType": "bool",
          "name": "",
          "type": "bool"
        }
      ],
      "stateMutability": "nonpayable",
      "type": "function"
    },
    {
      "inputs": [
        {
          "internalType": "address",
          "name": "account",
          "type": "address"
        }
      ],
      "name": "balanceOf",
      "outputs": [
        {
          "internalType": "uint256",
          "name": "",
          "type": "uint256"
        }
      ],
      "stateMutability": "view",
      "type": "function"
    },
    {
      "inputs": [
        {
          "internalType": "address",
          "name": "account",
          "type": "address"
        },
        {
          "internalType": "uint256",
          "name": "amount",
          "type": "uint256"
        }
      ],
      "name": "burn",
      "outputs": [],
      "stateMutability": "nonpayable",
      "type": "function"
    },
    {
      "inputs": [
        {
          "internalType": "address",
          "name": "account",
          "type": "address"
        },
        {
          "internalType": "uint256",
          "name": "amount",
          "type": "uint256"
        }
      ],
      "name": "burnFrom",
      "outputs": [],
      "stateMutability": "nonpayable",
      "type": "function"
    },
    {
      "inputs": [
        {
          "internalType": "address",
          "name": "account",
          "type": "address"
        },
        {
          "internalType": "uint32",
          "name": "pos",
          "type": "uint32"
        }
      ],
      "name": "checkpoints",
      "outputs": [
        {
          "components": [
            {
              "internalType": "uint32",
              "name": "fromBlock",
              "type": "uint32"
            },
            {
              "internalType": "uint224",
              "name": "votes",
              "type": "uint224"
            }
          ],
          "internalType": "struct ERC20VotesUpgradeable.Checkpoint",
          "name": "",
          "type": "tuple"
        }
      ],
      "stateMutability": "view",
      "type": "function"
    },
    {
      "inputs": [],
      "name": "decimals",
      "outputs": [
        {
          "internalType": "uint8",
          "name": "",
          "type": "uint8"
        }
      ],
      "stateMutability": "view",
      "type": "function"
    },
    {
      "inputs": [
        {
          "internalType": "address",
          "name": "spender",
          "type": "address"
        },
        {
          "internalType": "uint256",
          "name": "subtractedValue",
          "type": "uint256"
        }
      ],
      "name": "decreaseAllowance",
      "outputs": [
        {
          "internalType": "bool",
          "name": "",
          "type": "bool"
        }
      ],
      "stateMutability": "nonpayable",
      "type": "function"
    },
    {
      "inputs": [
        {
          "internalType": "address",
          "name": "delegatee",
          "type": "address"
        }
      ],
      "name": "delegate",
      "outputs": [],
      "stateMutability": "nonpayable",
      "type": "function"
    },
    {
      "inputs": [
        {
          "internalType": "address",
          "name": "delegatee",
          "type": "address"
        },
        {
          "internalType": "uint256",
          "name": "nonce",
          "type": "uint256"
        },
        {
          "internalType": "uint256",
          "name": "expiry",
          "type": "uint256"
        },
        {
          "internalType": "uint8",
          "name": "v",
          "type": "uint8"
        },
        {
          "internalType": "bytes32",
          "name": "r",
          "type": "bytes32"
        },
        {
          "internalType": "bytes32",
          "name": "s",
          "type": "bytes32"
        }
      ],
      "name": "delegateBySig",
      "outputs": [],
      "stateMutability": "nonpayable",
      "type": "function"
    },
    {
      "inputs": [
        {
          "internalType": "address",
          "name": "account",
          "type": "address"
        }
      ],
      "name": "delegates",
      "outputs": [
        {
          "internalType": "address",
          "name": "",
          "type": "address"
        }
      ],
      "stateMutability": "view",
      "type": "function"
    },
    {
      "inputs": [
        {
          "internalType": "uint256",
          "name": "blockNumber",
          "type": "uint256"
        }
      ],
      "name": "getPastTotalSupply",
      "outputs": [
        {
          "internalType": "uint256",
          "name": "",
          "type": "uint256"
        }
      ],
      "stateMutability": "view",
      "type": "function"
    },
    {
      "inputs": [
        {
          "internalType": "address",
          "name": "account",
          "type": "address"
        },
        {
          "internalType": "uint256",
          "name": "blockNumber",
          "type": "uint256"
        }
      ],
      "name": "getPastVotes",
      "outputs": [
        {
          "internalType": "uint256",
          "name": "",
          "type": "uint256"
        }
      ],
      "stateMutability": "view",
      "type": "function"
    },
    {
      "inputs": [
        {
          "internalType": "address",
          "name": "account",
          "type": "address"
        }
      ],
      "name": "getVotes",
      "outputs": [
        {
          "internalType": "uint256",
          "name": "",
          "type": "uint256"
        }
      ],
      "stateMutability": "view",
      "type": "function"
    },
    {
      "inputs": [
        {
          "internalType": "address",
          "name": "spender",
          "type": "address"
        },
        {
          "internalType": "uint256",
          "name": "addedValue",
          "type": "uint256"
        }
      ],
      "name": "increaseAllowance",
      "outputs": [
        {
          "internalType": "bool",
          "name": "",
          "type": "bool"
        }
      ],
      "stateMutability": "nonpayable",
      "type": "function"
    },
    {
      "inputs": [],
      "name": "initialize",
      "outputs": [],
      "stateMutability": "nonpayable",
      "type": "function"
    },
    {
      "inputs": [
        {
          "internalType": "address",
          "name": "_account",
          "type": "address"
        }
      ],
      "name": "isMinter",
      "outputs": [
        {
          "internalType": "bool",
          "name": "",
          "type": "bool"
        }
      ],
      "stateMutability": "view",
      "type": "function"
    },
    {
      "inputs": [
        {
          "internalType": "address",
          "name": "account",
          "type": "address"
        },
        {
          "internalType": "uint256",
          "name": "amount",
          "type": "uint256"
        },
        {
          "internalType": "uint256",
          "name": "lockTime",
          "type": "uint256"
        }
      ],
      "name": "lockTokensOnMinter",
      "outputs": [],
      "stateMutability": "nonpayable",
      "type": "function"
    },
    {
      "inputs": [
        {
          "internalType": "address",
          "name": "account",
          "type": "address"
        },
        {
          "internalType": "uint256",
          "name": "amount",
          "type": "uint256"
        },
        {
          "internalType": "uint256",
          "name": "lockTime",
          "type": "uint256"
        }
      ],
      "name": "lockTokensOnStake",
      "outputs": [],
      "stateMutability": "nonpayable",
      "type": "function"
    },
    {
      "inputs": [
        {
          "internalType": "address",
          "name": "",
          "type": "address"
        }
      ],
      "name": "lockedBalance",
      "outputs": [
        {
          "internalType": "uint256",
          "name": "",
          "type": "uint256"
        }
      ],
      "stateMutability": "view",
      "type": "function"
    },
    {
      "inputs": [
        {
          "internalType": "address",
          "name": "account",
          "type": "address"
        },
        {
          "internalType": "uint256",
          "name": "amount",
          "type": "uint256"
        }
      ],
      "name": "mint",
      "outputs": [],
      "stateMutability": "nonpayable",
      "type": "function"
    },
    {
      "inputs": [
        {
          "internalType": "address",
          "name": "account",
          "type": "address"
        },
        {
          "internalType": "uint256",
          "name": "amount",
          "type": "uint256"
        }
      ],
      "name": "mintForUser",
      "outputs": [],
      "stateMutability": "nonpayable",
      "type": "function"
    },
    {
      "inputs": [],
      "name": "mintSupply",
      "outputs": [
        {
          "internalType": "uint256",
          "name": "",
          "type": "uint256"
        }
      ],
      "stateMutability": "view",
      "type": "function"
    },
    {
      "inputs": [],
      "name": "name",
      "outputs": [
        {
          "internalType": "string",
          "name": "",
          "type": "string"
        }
      ],
      "stateMutability": "view",
      "type": "function"
    },
    {
      "inputs": [
        {
          "internalType": "address",
          "name": "owner",
          "type": "address"
        }
      ],
      "name": "nonces",
      "outputs": [
        {
          "internalType": "uint256",
          "name": "",
          "type": "uint256"
        }
      ],
      "stateMutability": "view",
      "type": "function"
    },
    {
      "inputs": [
        {
          "internalType": "address",
          "name": "account",
          "type": "address"
        }
      ],
      "name": "numCheckpoints",
      "outputs": [
        {
          "internalType": "uint32",
          "name": "",
          "type": "uint32"
        }
      ],
      "stateMutability": "view",
      "type": "function"
    },
    {
      "inputs": [
        {
          "internalType": "address",
          "name": "owner",
          "type": "address"
        },
        {
          "internalType": "address",
          "name": "spender",
          "type": "address"
        },
        {
          "internalType": "uint256",
          "name": "value",
          "type": "uint256"
        },
        {
          "internalType": "uint256",
          "name": "deadline",
          "type": "uint256"
        },
        {
          "internalType": "uint8",
          "name": "v",
          "type": "uint8"
        },
        {
          "internalType": "bytes32",
          "name": "r",
          "type": "bytes32"
        },
        {
          "internalType": "bytes32",
          "name": "s",
          "type": "bytes32"
        }
      ],
      "name": "permit",
      "outputs": [],
      "stateMutability": "nonpayable",
      "type": "function"
    },
    {
      "inputs": [
        {
          "internalType": "address",
          "name": "_account",
          "type": "address"
        }
      ],
      "name": "removeMinter",
      "outputs": [],
      "stateMutability": "nonpayable",
      "type": "function"
    },
    {
      "inputs": [],
      "name": "renounceMinter",
      "outputs": [],
      "stateMutability": "nonpayable",
      "type": "function"
    },
    {
      "inputs": [
        {
          "internalType": "address",
          "name": "_stakingContract",
          "type": "address"
        }
      ],
      "name": "setStakingContract",
      "outputs": [],
      "stateMutability": "nonpayable",
      "type": "function"
    },
    {
      "inputs": [],
      "name": "stakingContract",
      "outputs": [
        {
          "internalType": "address",
          "name": "",
          "type": "address"
        }
      ],
      "stateMutability": "view",
      "type": "function"
    },
    {
      "inputs": [],
      "name": "symbol",
      "outputs": [
        {
          "internalType": "string",
          "name": "",
          "type": "string"
        }
      ],
      "stateMutability": "view",
      "type": "function"
    },
    {
      "inputs": [],
      "name": "totalSupply",
      "outputs": [
        {
          "internalType": "uint256",
          "name": "",
          "type": "uint256"
        }
      ],
      "stateMutability": "view",
      "type": "function"
    },
    {
      "inputs": [
        {
          "internalType": "address",
          "name": "to",
          "type": "address"
        },
        {
          "internalType": "uint256",
          "name": "amount",
          "type": "uint256"
        }
      ],
      "name": "transfer",
      "outputs": [
        {
          "internalType": "bool",
          "name": "",
          "type": "bool"
        }
      ],
      "stateMutability": "nonpayable",
      "type": "function"
    },
    {
      "inputs": [
        {
          "internalType": "address",
          "name": "from",
          "type": "address"
        },
        {
          "internalType": "address",
          "name": "to",
          "type": "address"
        },
        {
          "internalType": "uint256",
          "name": "amount",
          "type": "uint256"
        }
      ],
      "name": "transferFrom",
      "outputs": [
        {
          "internalType": "bool",
          "name": "",
          "type": "bool"
        }
      ],
      "stateMutability": "nonpayable",
      "type": "function"
    },
    {
      "inputs": [
        {
          "internalType": "address",
          "name": "",
          "type": "address"
        }
      ],
      "name": "unlockTime",
      "outputs": [
        {
          "internalType": "uint256",
          "name": "",
          "type": "uint256"
        }
      ],
      "stateMutability": "view",
      "type": "function"
    },
    {
      "inputs": [
        {
          "internalType": "address",
          "name": "account",
          "type": "address"
        },
        {
          "internalType": "uint256",
          "name": "amount",
          "type": "uint256"
        }
      ],
      "name": "unlockTokens",
      "outputs": [],
      "stateMutability": "nonpayable",
      "type": "function"
    }
  ],
  "bytecode": "0x60806040526000610100553480156200001757600080fd5b50620000226200003a565b60fe80546001600160a01b03191633179055620000fc565b600054610100900460ff1615620000a75760405162461bcd60e51b815260206004820152602760248201527f496e697469616c697a61626c653a20636f6e747261637420697320696e697469604482015266616c697a696e6760c81b606482015260840160405180910390fd5b60005460ff9081161015620000fa576000805460ff191660ff9081179091556040519081527f7f26b83ff96e1f2b6a682f133852f6798a09c465da95921460cefb38474024989060200160405180910390a15b565b612dbd806200010c6000396000f3fe608060405234801561001057600080fd5b50600436106102535760003560e01c80638129fc1c116101465780639dd373b9116100c3578063d0dbc83311610087578063d0dbc83314610518578063d505accf1461052b578063dd62ed3e1461053e578063ee99205c14610551578063f1127ed814610564578063f851a440146105a157600080fd5b80639dd373b9146104b9578063a457c2d7146104cc578063a9059cbb146104df578063aa271e1a146104f2578063c3cda5201461050557600080fd5b8063986502751161010a57806398650275146104575780639ab24eb01461045f5780639ae697bf146104725780639d564d9a146104935780639dc29fac146104a657600080fd5b80638129fc1c1461040e5780638e539e8c14610416578063902d55a51461042957806395d89b411461043c578063983b2d561461044457600080fd5b80633a46b1a8116101d45780636fcfff45116101985780636fcfff451461038c57806370a08231146103b457806376b467b7146103c757806379cc6790146103e85780637ecebe00146103fb57600080fd5b80633a46b1a81461031557806340c10f19146103285780634ad40c481461033b578063587cde1e1461034e5780635c19a95c1461037957600080fd5b806323b872dd1161021b57806323b872dd146102c55780633092afd5146102d8578063313ce567146102eb5780633644e515146102fa578063395093511461030257600080fd5b80630308ba3c14610258578063045b7dca1461026d57806306fdde0314610285578063095ea7b31461029a57806318160ddd146102bd575b600080fd5b61026b61026636600461293b565b6105b4565b005b610100545b6040519081526020015b60405180910390f35b61028d61063d565b60405161027c919061296e565b6102ad6102a83660046129c3565b6106cf565b604051901515815260200161027c565b603554610272565b6102ad6102d33660046129ed565b610700565b61026b6102e6366004612a29565b610751565b6040516012815260200161027c565b610272610787565b6102ad6103103660046129c3565b610796565b6102726103233660046129c3565b6107e2565b61026b6103363660046129c3565b610879565b61026b61034936600461293b565b61098c565b61036161035c366004612a29565b6109b6565b6040516001600160a01b03909116815260200161027c565b61026b610387366004612a29565b6109f1565b61039f61039a366004612a29565b610a14565b60405163ffffffff909116815260200161027c565b6102726103c2366004612a29565b610a54565b6102726103d5366004612a29565b6101036020526000908152604090205481565b61026b6103f63660046129c3565b610a8c565b610272610409366004612a29565b610b39565b61026b610b78565b610272610424366004612a44565b610cf0565b6102726b019d971e4fe8401e7400000081565b61028d610d4c565b61026b610452366004612a29565b610d5b565b61026b610d8e565b61027261046d366004612a29565b610d99565b610272610480366004612a29565b6101026020526000908152604090205481565b61026b6104a13660046129c3565b610e37565b61026b6104b43660046129c3565b610f60565b61026b6104c7366004612a29565b610fb9565b6102ad6104da3660046129c3565b611083565b6102ad6104ed3660046129c3565b61111f565b6102ad610500366004612a29565b611140565b61026b610513366004612a6e565b61115f565b61026b6105263660046129c3565b6112b3565b61026b610539366004612ac6565b6112dd565b61027261054c366004612b30565b611458565b60ff54610361906001600160a01b031681565b610577610572366004612b63565b6114c5565b60408051825163ffffffff1681526020928301516001600160e01b0316928101929092520161027c565b60fe54610361906001600160a01b031681565b6105bd33611140565b6105e25760405162461bcd60e51b81526004016105d990612ba3565b60405180910390fd5b6001600160a01b038316600090815261010260205260408120805484929061060b908490612be7565b9091555061061b90508142612be7565b6001600160a01b03909316600090815261010360205260409020929092555050565b60606036805461064c90612bff565b80601f016020809104026020016040519081016040528092919081815260200182805461067890612bff565b80156106c55780601f1061069a576101008083540402835291602001916106c5565b820191906000526020600020905b8154815290600101906020018083116106a857829003601f168201915b5050505050905090565b6000336106f66106de82611566565b6106f0866001600160a01b0316611566565b856115ad565b5060019392505050565b6000610714846001600160a01b0316611566565b93503361072a8561072483611566565b856116c9565b61074685610740866001600160a01b0316611566565b85611743565b506001949350505050565b60fe546001600160a01b0316331461077b5760405162461bcd60e51b81526004016105d990612c34565b610784816118ff565b50565b6000610791611949565b905090565b60006107aa836001600160a01b0316611566565b925060006107c1335b6001600160a01b0316611566565b90506106f68185856107d38589611458565b6107dd9190612be7565b6115ad565b60004382106108335760405162461bcd60e51b815260206004820152601f60248201527f4552433230566f7465733a20626c6f636b206e6f7420796574206d696e65640060448201526064016105d9565b61087260cd600061084c866001600160a01b0316611566565b6001600160a01b03166001600160a01b03168152602001908152602001600020836119c4565b9392505050565b61088233611140565b61089e5760405162461bcd60e51b81526004016105d990612ba3565b6108b0826001600160a01b0316611566565b91506b019d971e4fe8401e7400000061010054826108ce9190612be7565b11156109275760405162461bcd60e51b815260206004820152602260248201527f434854546f6b656e3a20746f74616c20737570706c79206f766572666c6f77696044820152616e6760f01b60648201526084016105d9565b6109318282611abb565b8061010060008282546109449190612be7565b90915550506040518181526001600160a01b038316907f0f6798a560793a54c3bcfe86a93cde1e73087d944c0ea20544137d4121396885906020015b60405180910390a25050565b60ff546001600160a01b031633146105e25760405162461bcd60e51b81526004016105d990612c75565b600060cc60006109ce846001600160a01b0316611566565b6001600160a01b0390811682526020820192909252604001600020541692915050565b6107846109fd336107b3565b610a0f836001600160a01b0316611566565b611b45565b6000610a4e60cd6000610a2f856001600160a01b0316611566565b6001600160a01b03168152602081019190915260400160002054611bc5565b92915050565b600060336000610a6c846001600160a01b0316611566565b6001600160a01b0316815260208101919091526040016000205492915050565b610a9533611140565b610ab15760405162461bcd60e51b81526004016105d990612ba3565b610ac3826001600160a01b0316611566565b91506000610ad0336107b3565b9050610add8382846116c9565b610ae78383611c2e565b826001600160a01b0316816001600160a01b03167f3c7611a5be35512cb20a6f2f039b47efb0d70f9c538e3886fa3f3e9c32af924f84604051610b2c91815260200190565b60405180910390a3505050565b6000610a4e60996000610b54856001600160a01b0316611566565b6001600160a01b03166001600160a01b031681526020019081526020016000205490565b600054610100900460ff1615808015610b985750600054600160ff909116105b80610bb25750303b158015610bb2575060005460ff166001145b610c155760405162461bcd60e51b815260206004820152602e60248201527f496e697469616c697a61626c653a20636f6e747261637420697320616c72656160448201526d191e481a5b9a5d1a585b1a5e995960921b60648201526084016105d9565b6000805460ff191660011790558015610c38576000805461ff0019166101001790555b610c7e6040518060400160405280600981526020016821a42a102a37b5b2b760b91b8152506040518060400160405280600381526020016210d21560ea1b815250611c46565b610ca86040518060400160405280600981526020016821a42a102a37b5b2b760b91b815250611c7b565b8015610784576000805461ff0019169055604051600181527f7f26b83ff96e1f2b6a682f133852f6798a09c465da95921460cefb38474024989060200160405180910390a150565b6000438210610d415760405162461bcd60e51b815260206004820152601f60248201527f4552433230566f7465733a20626c6f636b206e6f7420796574206d696e65640060448201526064016105d9565b610a4e60ce836119c4565b60606037805461064c90612bff565b60fe546001600160a01b03163314610d855760405162461bcd60e51b81526004016105d990612c34565b61078481611cc5565b610d97336118ff565b565b6000610dad826001600160a01b0316611566565b6001600160a01b038116600090815260cd60205260409020549092508015610e24576001600160a01b038316600090815260cd60205260409020610df2600183612cc1565b81548110610e0257610e02612cd8565b60009182526020909120015464010000000090046001600160e01b0316610e27565b60005b6001600160e01b03169392505050565b610e4033611140565b610e5c5760405162461bcd60e51b81526004016105d990612ba3565b6001600160a01b03821660009081526101036020526040902054421015610ec55760405162461bcd60e51b815260206004820152601760248201527f546f6b656e7320617265207374696c6c206c6f636b656400000000000000000060448201526064016105d9565b6001600160a01b03821660009081526101026020526040902054811115610f2e5760405162461bcd60e51b815260206004820152601b60248201527f496e73756666696369656e74206c6f636b65642062616c616e6365000000000060448201526064016105d9565b6001600160a01b0382166000908152610102602052604081208054839290610f57908490612cc1565b90915550505050565b610f72826001600160a01b0316611566565b9150610f7e8282611c2e565b816001600160a01b03167fcc16f5dbb4873280815c1ee09dbd06736cffcc184412cf7a71a0fdb75d397ca58260405161098091815260200190565b60fe546001600160a01b03163314610fe35760405162461bcd60e51b81526004016105d990612c34565b6001600160a01b0381166110395760405162461bcd60e51b815260206004820181905260248201527f496e76616c6964207374616b696e6720636f6e7472616374206164647265737360448201526064016105d9565b60ff80546001600160a01b0319166001600160a01b0383169081179091556040517f1253844b0fff3da7dd2829de816c9b4f94c238cf2bf6eb72c02c7d6f2b53beac90600090a250565b6000611097836001600160a01b0316611566565b925060006110a4336107b3565b905060006110b28286611458565b9050838110156111125760405162461bcd60e51b815260206004820152602560248201527f45524332303a2064656372656173656420616c6c6f77616e63652062656c6f77604482015264207a65726f60d81b60648201526084016105d9565b61074682868684036115ad565b6000336106f661112e82611566565b610740866001600160a01b0316611566565b6001600160a01b03166000908152610101602052604090205460ff1690565b611171866001600160a01b0316611566565b9550834211156111c35760405162461bcd60e51b815260206004820152601d60248201527f4552433230566f7465733a207369676e6174757265206578706972656400000060448201526064016105d9565b60006112476107b361123f7fe48329057bfd03d55e49b547132e39cffd9c1820ad7b9d4c5307691425d15adf8a8a8a60405160200161122494939291909384526001600160a01b039290921660208401526040830152606082015260800190565b60405160208183030381529060405280519060200120611d12565b868686611d60565b905061125281611d88565b86146112a05760405162461bcd60e51b815260206004820152601960248201527f4552433230566f7465733a20696e76616c6964206e6f6e63650000000000000060448201526064016105d9565b6112aa8188611b45565b50505050505050565b60ff546001600160a01b0316331461089e5760405162461bcd60e51b81526004016105d990612c75565b6112ef876001600160a01b0316611566565b9650834211156113415760405162461bcd60e51b815260206004820152601d60248201527f45524332305065726d69743a206578706972656420646561646c696e6500000060448201526064016105d9565b60007f6e71edae12b1b97f4d1f60370fef10105fa2faae0126114a169c64845d6126c98888886113708c611d88565b6040805160208101969096526001600160a01b0394851690860152929091166060840152608083015260a082015260c0810186905260e00160405160208183030381529060405280519060200120905060006113cb82611d12565b905060006113de6107b383888888611d60565b9050896001600160a01b0316816001600160a01b0316146114415760405162461bcd60e51b815260206004820152601e60248201527f45524332305065726d69743a20696e76616c6964207369676e6174757265000060448201526064016105d9565b61144c8a8a8a6115ad565b50505050505050505050565b600060346000611470856001600160a01b0316611566565b6001600160a01b03166001600160a01b0316815260200190815260200160002060006114a4846001600160a01b0316611566565b6001600160a01b031681526020810191909152604001600020549392505050565b604080518082019091526000808252602082015260cd60006114ef856001600160a01b0316611566565b6001600160a01b03166001600160a01b031681526020019081526020016000208263ffffffff168154811061152657611526612cd8565b60009182526020918290206040805180820190915291015463ffffffff8116825264010000000090046001600160e01b0316918101919091529392505050565b600080600061157484611db0565b915091508161158557509192915050565b60008061159183611dee565b91509150816115a4575093949350505050565b95945050505050565b6001600160a01b03831661160f5760405162461bcd60e51b8152602060048201526024808201527f45524332303a20617070726f76652066726f6d20746865207a65726f206164646044820152637265737360e01b60648201526084016105d9565b6001600160a01b0382166116705760405162461bcd60e51b815260206004820152602260248201527f45524332303a20617070726f766520746f20746865207a65726f206164647265604482015261737360f01b60648201526084016105d9565b6001600160a01b0383811660008181526034602090815260408083209487168084529482529182902085905590518481527f8c5be1e5ebec7d5bd14f71427d1e84f3dd0314c0f7b2291e5b200ac8c7c3b9259101610b2c565b60006116d58484611458565b9050600019811461173d57818110156117305760405162461bcd60e51b815260206004820152601d60248201527f45524332303a20696e73756666696369656e7420616c6c6f77616e636500000060448201526064016105d9565b61173d84848484036115ad565b50505050565b6001600160a01b0383166117a75760405162461bcd60e51b815260206004820152602560248201527f45524332303a207472616e736665722066726f6d20746865207a65726f206164604482015264647265737360d81b60648201526084016105d9565b6001600160a01b0382166118095760405162461bcd60e51b815260206004820152602360248201527f45524332303a207472616e7366657220746f20746865207a65726f206164647260448201526265737360e81b60648201526084016105d9565b611814838383611e58565b6001600160a01b0383166000908152603360205260409020548181101561188c5760405162461bcd60e51b815260206004820152602660248201527f45524332303a207472616e7366657220616d6f756e7420657863656564732062604482015265616c616e636560d01b60648201526084016105d9565b6001600160a01b0380851660008181526033602052604080822086860390559286168082529083902080548601905591517fddf252ad1be2c89b69c2b068fc378daa952ba7f163c4a11628f55a4df523b3ef906118ec9086815260200190565b60405180910390a361173d848484611efb565b6001600160a01b03811660008181526101016020526040808220805460ff19169055517fe94479a9f7e1952cc78f2d6baab678adc1b772d936c6583def489e524cb666929190a250565b60006107917f8b73c3c69bb8fe3d512ecc4cf759cc79239f7b179b0ffacaa9a75d522b39400f61197860655490565b6066546040805160208101859052908101839052606081018290524660808201523060a082015260009060c0016040516020818303038152906040528051906020012090509392505050565b815460009081816005811115611a1e5760006119df84611f16565b6119e99085612cc1565b600088815260209020909150869082015463ffffffff161115611a0e57809150611a1c565b611a19816001612be7565b92505b505b80821015611a6b576000611a328383611ffb565b600088815260209020909150869082015463ffffffff161115611a5757809150611a65565b611a62816001612be7565b92505b50611a1e565b8015611aa557611a8e86611a80600184612cc1565b600091825260209091200190565b5464010000000090046001600160e01b0316611aa8565b60005b6001600160e01b03169695505050505050565b611ac58282612016565b6035546001600160e01b031015611b375760405162461bcd60e51b815260206004820152603060248201527f4552433230566f7465733a20746f74616c20737570706c79207269736b73206f60448201526f766572666c6f77696e6720766f74657360801b60648201526084016105d9565b61173d60ce6120eb836120f7565b6000611b50836109b6565b90506000611b5d84610a54565b6001600160a01b03858116600081815260cc602052604080822080546001600160a01b031916898616908117909155905194955093928616927f3134e8a2e6d97e929a7e54011ea5485d7d196dd5f0ba4d4ef95803e8e3fc257f9190a461173d82848361224b565b600063ffffffff821115611c2a5760405162461bcd60e51b815260206004820152602660248201527f53616665436173743a2076616c756520646f65736e27742066697420696e203360448201526532206269747360d01b60648201526084016105d9565b5090565b611c388282612388565b61173d60ce6124cf836120f7565b600054610100900460ff16611c6d5760405162461bcd60e51b81526004016105d990612cee565b611c7782826124db565b5050565b600054610100900460ff16611ca25760405162461bcd60e51b81526004016105d990612cee565b61078481604051806040016040528060018152602001603160f81b815250612529565b6001600160a01b03811660008181526101016020526040808220805460ff19166001179055517f6ae172837ea30b801fbfcdd4108aa1d5bf8ff775444fd70256b44e6bf3dfc3f69190a250565b6000610a4e611d1f611949565b8360405161190160f01b6020820152602281018390526042810182905260009060620160405160208183030381529060405280519060200120905092915050565b6000806000611d718787878761256a565b91509150611d7e8161262e565b5095945050505050565b6001600160a01b03811660009081526099602052604090208054600181018255905b50919050565b60008073ffffffffffffffffffffffff0000000000000000831660ff60981b811415611de8576001925067ffffffffffffffff841691505b50915091565b600080826000526016600a602060006002607f60991b015afa9150600051806001600160a01b031691508060a01c61ffff16905061040a8114611e345760009250600091505b50811580611e4357503d601614155b15611e5357506000928392509050565b915091565b6001600160a01b03831615611ef6576001600160a01b038316600090815261010260205260409020548190611e8c85610a54565b611e969190612cc1565b1015611ef65760405162461bcd60e51b815260206004820152602960248201527f5472616e7366657220616d6f756e74206578636565647320617661696c61626c604482015268652062616c616e636560b81b60648201526084016105d9565b505050565b611ef6611f07846109b6565b611f10846109b6565b8361224b565b600081611f2557506000919050565b60006001611f328461277c565b901c6001901b90506001818481611f4b57611f4b612d39565b048201901c90506001818481611f6357611f63612d39565b048201901c90506001818481611f7b57611f7b612d39565b048201901c90506001818481611f9357611f93612d39565b048201901c90506001818481611fab57611fab612d39565b048201901c90506001818481611fc357611fc3612d39565b048201901c90506001818481611fdb57611fdb612d39565b048201901c905061087281828581611ff557611ff5612d39565b04612810565b600061200a6002848418612d4f565b61087290848416612be7565b6001600160a01b03821661206c5760405162461bcd60e51b815260206004820152601f60248201527f45524332303a206d696e7420746f20746865207a65726f20616464726573730060448201526064016105d9565b61207860008383611e58565b806035600082825461208a9190612be7565b90915550506001600160a01b0382166000818152603360209081526040808320805486019055518481527fddf252ad1be2c89b69c2b068fc378daa952ba7f163c4a11628f55a4df523b3ef910160405180910390a3611c7760008383611efb565b60006108728284612be7565b825460009081908181156121445761211487611a80600185612cc1565b60408051808201909152905463ffffffff8116825264010000000090046001600160e01b03166020820152612159565b60408051808201909152600080825260208201525b905080602001516001600160e01b0316935061217984868863ffffffff16565b92506000821180156121915750805163ffffffff1643145b156121d65761219f83612826565b6121ae88611a80600186612cc1565b80546001600160e01b03929092166401000000000263ffffffff909216919091179055612241565b8660405180604001604052806121eb43611bc5565b63ffffffff1681526020016121ff86612826565b6001600160e01b0390811690915282546001810184556000938452602093849020835194909301519091166401000000000263ffffffff909316929092179101555b5050935093915050565b816001600160a01b0316836001600160a01b03161415801561226d5750600081115b15611ef6576001600160a01b038316156122fb576001600160a01b038316600090815260cd6020526040812081906122a8906124cf856120f7565b91509150846001600160a01b03167fdec2bacdd2f05b59de34da9b523dff8be42e5e38e818c82fdb0bae774387a72483836040516122f0929190918252602082015260400190565b60405180910390a250505b6001600160a01b03821615611ef6576001600160a01b038216600090815260cd602052604081208190612331906120eb856120f7565b91509150836001600160a01b03167fdec2bacdd2f05b59de34da9b523dff8be42e5e38e818c82fdb0bae774387a7248383604051612379929190918252602082015260400190565b60405180910390a25050505050565b6001600160a01b0382166123e85760405162461bcd60e51b815260206004820152602160248201527f45524332303a206275726e2066726f6d20746865207a65726f206164647265736044820152607360f81b60648201526084016105d9565b6123f482600083611e58565b6001600160a01b038216600090815260336020526040902054818110156124685760405162461bcd60e51b815260206004820152602260248201527f45524332303a206275726e20616d6f756e7420657863656564732062616c616e604482015261636560f01b60648201526084016105d9565b6001600160a01b03831660008181526033602090815260408083208686039055603580548790039055518581529192917fddf252ad1be2c89b69c2b068fc378daa952ba7f163c4a11628f55a4df523b3ef910160405180910390a3611ef683600084611efb565b60006108728284612cc1565b600054610100900460ff166125025760405162461bcd60e51b81526004016105d990612cee565b815161251590603690602085019061288f565b508051611ef690603790602084019061288f565b600054610100900460ff166125505760405162461bcd60e51b81526004016105d990612cee565b815160209283012081519190920120606591909155606655565b6000807f7fffffffffffffffffffffffffffffff5d576e7357a4501ddfe92f46681b20a08311156125a15750600090506003612625565b6040805160008082526020820180845289905260ff881692820192909252606081018690526080810185905260019060a0016020604051602081039080840390855afa1580156125f5573d6000803e3d6000fd5b5050604051601f1901519150506001600160a01b03811661261e57600060019250925050612625565b9150600090505b94509492505050565b600081600481111561264257612642612d71565b141561264b5750565b600181600481111561265f5761265f612d71565b14156126ad5760405162461bcd60e51b815260206004820152601860248201527f45434453413a20696e76616c6964207369676e6174757265000000000000000060448201526064016105d9565b60028160048111156126c1576126c1612d71565b141561270f5760405162461bcd60e51b815260206004820152601f60248201527f45434453413a20696e76616c6964207369676e6174757265206c656e6774680060448201526064016105d9565b600381600481111561272357612723612d71565b14156107845760405162461bcd60e51b815260206004820152602260248201527f45434453413a20696e76616c6964207369676e6174757265202773272076616c604482015261756560f01b60648201526084016105d9565b600080608083901c1561279157608092831c92015b604083901c156127a357604092831c92015b602083901c156127b557602092831c92015b601083901c156127c757601092831c92015b600883901c156127d957600892831c92015b600483901c156127eb57600492831c92015b600283901c156127fd57600292831c92015b600183901c15610a4e5760010192915050565b600081831061281f5781610872565b5090919050565b60006001600160e01b03821115611c2a5760405162461bcd60e51b815260206004820152602760248201527f53616665436173743a2076616c756520646f65736e27742066697420696e20326044820152663234206269747360c81b60648201526084016105d9565b82805461289b90612bff565b90600052602060002090601f0160209004810192826128bd5760008555612903565b82601f106128d657805160ff1916838001178555612903565b82800160010185558215612903579182015b828111156129035782518255916020019190600101906128e8565b50611c2a9291505b80821115611c2a576000815560010161290b565b80356001600160a01b038116811461293657600080fd5b919050565b60008060006060848603121561295057600080fd5b6129598461291f565b95602085013595506040909401359392505050565b600060208083528351808285015260005b8181101561299b5785810183015185820160400152820161297f565b818111156129ad576000604083870101525b50601f01601f1916929092016040019392505050565b600080604083850312156129d657600080fd5b6129df8361291f565b946020939093013593505050565b600080600060608486031215612a0257600080fd5b612a0b8461291f565b9250612a196020850161291f565b9150604084013590509250925092565b600060208284031215612a3b57600080fd5b6108728261291f565b600060208284031215612a5657600080fd5b5035919050565b803560ff8116811461293657600080fd5b60008060008060008060c08789031215612a8757600080fd5b612a908761291f565b95506020870135945060408701359350612aac60608801612a5d565b92506080870135915060a087013590509295509295509295565b600080600080600080600060e0888a031215612ae157600080fd5b612aea8861291f565b9650612af86020890161291f565b95506040880135945060608801359350612b1460808901612a5d565b925060a0880135915060c0880135905092959891949750929550565b60008060408385031215612b4357600080fd5b612b4c8361291f565b9150612b5a6020840161291f565b90509250929050565b60008060408385031215612b7657600080fd5b612b7f8361291f565b9150602083013563ffffffff81168114612b9857600080fd5b809150509250929050565b60208082526014908201527313db9b1e481b5a5b9d195c8818d85b8818d85b1b60621b604082015260600190565b634e487b7160e01b600052601160045260246000fd5b60008219821115612bfa57612bfa612bd1565b500190565b600181811c90821680612c1357607f821691505b60208210811415611daa57634e487b7160e01b600052602260045260246000fd5b60208082526021908201527f4f6e6c792061646d696e2063616e2063616c6c20746869732066756e6374696f6040820152603760f91b606082015260800190565b6020808252602c908201527f4f6e6c79207374616b696e6720636f6e74726163742063616e2063616c6c207460408201526b3434b990333ab731ba34b7b760a11b606082015260800190565b600082821015612cd357612cd3612bd1565b500390565b634e487b7160e01b600052603260045260246000fd5b6020808252602b908201527f496e697469616c697a61626c653a20636f6e7472616374206973206e6f74206960408201526a6e697469616c697a696e6760a81b606082015260800190565b634e487b7160e01b600052601260045260246000fd5b600082612d6c57634e487b7160e01b600052601260045260246000fd5b500490565b634e487b7160e01b600052602160045260246000fdfea2646970667358221220c10784f0e02caba1e2906c0272d970f1a14eeae496eff705ead3b512c17479ed64736f6c63430008090033",
  "linkReferences": {},
  "deployedLinkReferences": {}
}