{
  "_format": "hh-sol-artifact-1",
  "contractName": "FTDToken",
  "sourceName": "contracts/protocol/token/FTDToken.sol",
  "abi": [
    {
      "inputs": [],
      "stateMutability": "nonpayable",
      "type": "constructor"
    },
    {
      "anonymous": false,
      "inputs": [
        {
          "indexed": true,
          "internalType": "address",
          "name": "owner",
          "type": "address"
        },
        {
          "indexed": true,
          "internalType": "address",
          "name": "spender",
          "type": "address"
        },
        {
          "indexed": false,
          "internalType": "uint256",
          "name": "value",
          "type": "uint256"
        }
      ],
      "name": "Approval",
      "type": "event"
    },
    {
      "anonymous": false,
      "inputs": [
        {
          "indexed": true,
          "internalType": "address",
          "name": "account",
          "type": "address"
        },
        {
          "indexed": false,
          "internalType": "uint256",
          "name": "amount",
          "type": "uint256"
        }
      ],
      "name": "Burn",
      "type": "event"
    },
    {
      "anonymous": false,
      "inputs": [
        {
          "indexed": true,
          "internalType": "address",
          "name": "sender",
          "type": "address"
        },
        {
          "indexed": true,
          "internalType": "address",
          "name": "account",
          "type": "address"
        },
        {
          "indexed": false,
          "internalType": "uint256",
          "name": "amount",
          "type": "uint256"
        }
      ],
      "name": "BurnFrom",
      "type": "event"
    },
    {
      "anonymous": false,
      "inputs": [
        {
          "indexed": true,
          "internalType": "address",
          "name": "delegator",
          "type": "address"
        },
        {
          "indexed": true,
          "internalType": "address",
          "name": "fromDelegate",
          "type": "address"
        },
        {
          "indexed": true,
          "internalType": "address",
          "name": "toDelegate",
          "type": "address"
        }
      ],
      "name": "DelegateChanged",
      "type": "event"
    },
    {
      "anonymous": false,
      "inputs": [
        {
          "indexed": true,
          "internalType": "address",
          "name": "delegate",
          "type": "address"
        },
        {
          "indexed": false,
          "internalType": "uint256",
          "name": "previousBalance",
          "type": "uint256"
        },
        {
          "indexed": false,
          "internalType": "uint256",
          "name": "newBalance",
          "type": "uint256"
        }
      ],
      "name": "DelegateVotesChanged",
      "type": "event"
    },
    {
      "anonymous": false,
      "inputs": [
        {
          "indexed": false,
          "internalType": "uint8",
          "name": "version",
          "type": "uint8"
        }
      ],
      "name": "Initialized",
      "type": "event"
    },
    {
      "anonymous": false,
      "inputs": [
        {
          "indexed": true,
          "internalType": "address",
          "name": "account",
          "type": "address"
        },
        {
          "indexed": false,
          "internalType": "uint256",
          "name": "amount",
          "type": "uint256"
        }
      ],
      "name": "Mint",
      "type": "event"
    },
    {
      "anonymous": false,
      "inputs": [
        {
          "indexed": true,
          "internalType": "address",
          "name": "from",
          "type": "address"
        },
        {
          "indexed": true,
          "internalType": "address",
          "name": "to",
          "type": "address"
        },
        {
          "indexed": false,
          "internalType": "uint256",
          "name": "value",
          "type": "uint256"
        }
      ],
      "name": "Transfer",
      "type": "event"
    },
    {
      "inputs": [],
      "name": "DOMAIN_SEPARATOR",
      "outputs": [
        {
          "internalType": "bytes32",
          "name": "",
          "type": "bytes32"
        }
      ],
      "stateMutability": "view",
      "type": "function"
    },
    {
      "inputs": [],
      "name": "TOTAL_SUPPLY",
      "outputs": [
        {
          "internalType": "uint256",
          "name": "",
          "type": "uint256"
        }
      ],
      "stateMutability": "view",
      "type": "function"
    },
    {
      "inputs": [
        {
          "internalType": "address",
          "name": "owner",
          "type": "address"
        },
        {
          "internalType": "address",
          "name": "spender",
          "type": "address"
        }
      ],
      "name": "allowance",
      "outputs": [
        {
          "internalType": "uint256",
          "name": "",
          "type": "uint256"
        }
      ],
      "stateMutability": "view",
      "type": "function"
    },
    {
      "inputs": [
        {
          "internalType": "address",
          "name": "spender",
          "type": "address"
        },
        {
          "internalType": "uint256",
          "name": "amount",
          "type": "uint256"
        }
      ],
      "name": "approve",
      "outputs": [
        {
          "internalType": "bool",
          "name": "",
          "type": "bool"
        }
      ],
      "stateMutability": "nonpayable",
      "type": "function"
    },
    {
      "inputs": [
        {
          "internalType": "address",
          "name": "account",
          "type": "address"
        }
      ],
      "name": "balanceOf",
      "outputs": [
        {
          "internalType": "uint256",
          "name": "",
          "type": "uint256"
        }
      ],
      "stateMutability": "view",
      "type": "function"
    },
    {
      "inputs": [
        {
          "internalType": "uint256",
          "name": "amount",
          "type": "uint256"
        }
      ],
      "name": "burn",
      "outputs": [],
      "stateMutability": "nonpayable",
      "type": "function"
    },
    {
      "inputs": [
        {
          "internalType": "address",
          "name": "account",
          "type": "address"
        },
        {
          "internalType": "uint256",
          "name": "amount",
          "type": "uint256"
        }
      ],
      "name": "burnFrom",
      "outputs": [],
      "stateMutability": "nonpayable",
      "type": "function"
    },
    {
      "inputs": [
        {
          "internalType": "address",
          "name": "account",
          "type": "address"
        },
        {
          "internalType": "uint32",
          "name": "pos",
          "type": "uint32"
        }
      ],
      "name": "checkpoints",
      "outputs": [
        {
          "components": [
            {
              "internalType": "uint32",
              "name": "fromBlock",
              "type": "uint32"
            },
            {
              "internalType": "uint224",
              "name": "votes",
              "type": "uint224"
            }
          ],
          "internalType": "struct ERC20VotesUpgradeable.Checkpoint",
          "name": "",
          "type": "tuple"
        }
      ],
      "stateMutability": "view",
      "type": "function"
    },
    {
      "inputs": [],
      "name": "decimals",
      "outputs": [
        {
          "internalType": "uint8",
          "name": "",
          "type": "uint8"
        }
      ],
      "stateMutability": "view",
      "type": "function"
    },
    {
      "inputs": [
        {
          "internalType": "address",
          "name": "spender",
          "type": "address"
        },
        {
          "internalType": "uint256",
          "name": "subtractedValue",
          "type": "uint256"
        }
      ],
      "name": "decreaseAllowance",
      "outputs": [
        {
          "internalType": "bool",
          "name": "",
          "type": "bool"
        }
      ],
      "stateMutability": "nonpayable",
      "type": "function"
    },
    {
      "inputs": [
        {
          "internalType": "address",
          "name": "delegatee",
          "type": "address"
        }
      ],
      "name": "delegate",
      "outputs": [],
      "stateMutability": "nonpayable",
      "type": "function"
    },
    {
      "inputs": [
        {
          "internalType": "address",
          "name": "delegatee",
          "type": "address"
        },
        {
          "internalType": "uint256",
          "name": "nonce",
          "type": "uint256"
        },
        {
          "internalType": "uint256",
          "name": "expiry",
          "type": "uint256"
        },
        {
          "internalType": "uint8",
          "name": "v",
          "type": "uint8"
        },
        {
          "internalType": "bytes32",
          "name": "r",
          "type": "bytes32"
        },
        {
          "internalType": "bytes32",
          "name": "s",
          "type": "bytes32"
        }
      ],
      "name": "delegateBySig",
      "outputs": [],
      "stateMutability": "nonpayable",
      "type": "function"
    },
    {
      "inputs": [
        {
          "internalType": "address",
          "name": "account",
          "type": "address"
        }
      ],
      "name": "delegates",
      "outputs": [
        {
          "internalType": "address",
          "name": "",
          "type": "address"
        }
      ],
      "stateMutability": "view",
      "type": "function"
    },
    {
      "inputs": [
        {
          "internalType": "uint256",
          "name": "blockNumber",
          "type": "uint256"
        }
      ],
      "name": "getPastTotalSupply",
      "outputs": [
        {
          "internalType": "uint256",
          "name": "",
          "type": "uint256"
        }
      ],
      "stateMutability": "view",
      "type": "function"
    },
    {
      "inputs": [
        {
          "internalType": "address",
          "name": "account",
          "type": "address"
        },
        {
          "internalType": "uint256",
          "name": "blockNumber",
          "type": "uint256"
        }
      ],
      "name": "getPastVotes",
      "outputs": [
        {
          "internalType": "uint256",
          "name": "",
          "type": "uint256"
        }
      ],
      "stateMutability": "view",
      "type": "function"
    },
    {
      "inputs": [
        {
          "internalType": "address",
          "name": "account",
          "type": "address"
        }
      ],
      "name": "getVotes",
      "outputs": [
        {
          "internalType": "uint256",
          "name": "",
          "type": "uint256"
        }
      ],
      "stateMutability": "view",
      "type": "function"
    },
    {
      "inputs": [
        {
          "internalType": "address",
          "name": "spender",
          "type": "address"
        },
        {
          "internalType": "uint256",
          "name": "addedValue",
          "type": "uint256"
        }
      ],
      "name": "increaseAllowance",
      "outputs": [
        {
          "internalType": "bool",
          "name": "",
          "type": "bool"
        }
      ],
      "stateMutability": "nonpayable",
      "type": "function"
    },
    {
      "inputs": [],
      "name": "initialize",
      "outputs": [],
      "stateMutability": "nonpayable",
      "type": "function"
    },
    {
      "inputs": [
        {
          "internalType": "address",
          "name": "account",
          "type": "address"
        },
        {
          "internalType": "uint256",
          "name": "amount",
          "type": "uint256"
        }
      ],
      "name": "mint",
      "outputs": [],
      "stateMutability": "nonpayable",
      "type": "function"
    },
    {
      "inputs": [],
      "name": "mintSupply",
      "outputs": [
        {
          "internalType": "uint256",
          "name": "",
          "type": "uint256"
        }
      ],
      "stateMutability": "view",
      "type": "function"
    },
    {
      "inputs": [],
      "name": "name",
      "outputs": [
        {
          "internalType": "string",
          "name": "",
          "type": "string"
        }
      ],
      "stateMutability": "view",
      "type": "function"
    },
    {
      "inputs": [
        {
          "internalType": "address",
          "name": "owner",
          "type": "address"
        }
      ],
      "name": "nonces",
      "outputs": [
        {
          "internalType": "uint256",
          "name": "",
          "type": "uint256"
        }
      ],
      "stateMutability": "view",
      "type": "function"
    },
    {
      "inputs": [
        {
          "internalType": "address",
          "name": "account",
          "type": "address"
        }
      ],
      "name": "numCheckpoints",
      "outputs": [
        {
          "internalType": "uint32",
          "name": "",
          "type": "uint32"
        }
      ],
      "stateMutability": "view",
      "type": "function"
    },
    {
      "inputs": [
        {
          "internalType": "address",
          "name": "owner",
          "type": "address"
        },
        {
          "internalType": "address",
          "name": "spender",
          "type": "address"
        },
        {
          "internalType": "uint256",
          "name": "value",
          "type": "uint256"
        },
        {
          "internalType": "uint256",
          "name": "deadline",
          "type": "uint256"
        },
        {
          "internalType": "uint8",
          "name": "v",
          "type": "uint8"
        },
        {
          "internalType": "bytes32",
          "name": "r",
          "type": "bytes32"
        },
        {
          "internalType": "bytes32",
          "name": "s",
          "type": "bytes32"
        }
      ],
      "name": "permit",
      "outputs": [],
      "stateMutability": "nonpayable",
      "type": "function"
    },
    {
      "inputs": [],
      "name": "symbol",
      "outputs": [
        {
          "internalType": "string",
          "name": "",
          "type": "string"
        }
      ],
      "stateMutability": "view",
      "type": "function"
    },
    {
      "inputs": [],
      "name": "totalSupply",
      "outputs": [
        {
          "internalType": "uint256",
          "name": "",
          "type": "uint256"
        }
      ],
      "stateMutability": "view",
      "type": "function"
    },
    {
      "inputs": [
        {
          "internalType": "address",
          "name": "to",
          "type": "address"
        },
        {
          "internalType": "uint256",
          "name": "amount",
          "type": "uint256"
        }
      ],
      "name": "transfer",
      "outputs": [
        {
          "internalType": "bool",
          "name": "",
          "type": "bool"
        }
      ],
      "stateMutability": "nonpayable",
      "type": "function"
    },
    {
      "inputs": [
        {
          "internalType": "address",
          "name": "from",
          "type": "address"
        },
        {
          "internalType": "address",
          "name": "to",
          "type": "address"
        },
        {
          "internalType": "uint256",
          "name": "amount",
          "type": "uint256"
        }
      ],
      "name": "transferFrom",
      "outputs": [
        {
          "internalType": "bool",
          "name": "",
          "type": "bool"
        }
      ],
      "stateMutability": "nonpayable",
      "type": "function"
    }
  ],
  "bytecode": "0x6080604052600060fe553480156200001657600080fd5b506200002162000027565b620000e9565b600054610100900460ff1615620000945760405162461bcd60e51b815260206004820152602760248201527f496e697469616c697a61626c653a20636f6e747261637420697320696e697469604482015266616c697a696e6760c81b606482015260840160405180910390fd5b60005460ff9081161015620000e7576000805460ff191660ff9081179091556040519081527f7f26b83ff96e1f2b6a682f133852f6798a09c465da95921460cefb38474024989060200160405180910390a15b565b61263180620000f96000396000f3fe608060405234801561001057600080fd5b50600436106101c45760003560e01c806370a08231116100f95780639ab24eb011610097578063c3cda52011610071578063c3cda520146103a6578063d505accf146103b9578063dd62ed3e146103cc578063f1127ed8146103df57600080fd5b80639ab24eb01461036d578063a457c2d714610380578063a9059cbb1461039357600080fd5b80638129fc1c116100d35780638129fc1c146103375780638e539e8c1461033f578063902d55a51461035257806395d89b411461036557600080fd5b806370a08231146102fe57806379cc6790146103115780637ecebe001461032457600080fd5b8063395093511161016657806342966c681161014057806342966c6814610285578063587cde1e146102985780635c19a95c146102c35780636fcfff45146102d657600080fd5b8063395093511461024a5780633a46b1a81461025d57806340c10f191461027057600080fd5b806318160ddd116101a257806318160ddd1461021857806323b872dd14610220578063313ce567146102335780633644e5151461024257600080fd5b8063045b7dca146101c957806306fdde03146101e0578063095ea7b3146101f5575b600080fd5b60fe545b6040519081526020015b60405180910390f35b6101e861041c565b6040516101d79190612281565b6102086102033660046122f2565b6104ae565b60405190151581526020016101d7565b6035546101cd565b61020861022e36600461231c565b6104df565b604051601281526020016101d7565b6101cd610530565b6102086102583660046122f2565b61053f565b6101cd61026b3660046122f2565b61058b565b61028361027e3660046122f2565b610627565b005b610283610293366004612358565b610713565b6102ab6102a6366004612371565b610765565b6040516001600160a01b0390911681526020016101d7565b6102836102d1366004612371565b6107a0565b6102e96102e4366004612371565b6107c6565b60405163ffffffff90911681526020016101d7565b6101cd61030c366004612371565b610806565b61028361031f3660046122f2565b61083e565b6101cd610332366004612371565b6108c6565b610283610905565b6101cd61034d366004612358565b610a7d565b6101cd6b019d971e4fe8401e7400000081565b6101e8610ad9565b6101cd61037b366004612371565b610ae8565b61020861038e3660046122f2565b610b86565b6102086103a13660046122f2565b610c22565b6102836103b436600461239d565b610c43565b6102836103c73660046123f5565b610d97565b6101cd6103da36600461245f565b610f12565b6103f26103ed366004612492565b610f7f565b60408051825163ffffffff1681526020928301516001600160e01b031692810192909252016101d7565b60606036805461042b906124d2565b80601f0160208091040260200160405190810160405280929190818152602001828054610457906124d2565b80156104a45780601f10610479576101008083540402835291602001916104a4565b820191906000526020600020905b81548152906001019060200180831161048757829003601f168201915b5050505050905090565b6000336104d56104bd82611020565b6104cf866001600160a01b0316611020565b85611067565b5060019392505050565b60006104f3846001600160a01b0316611020565b9350336105098561050383611020565b85611183565b6105258561051f866001600160a01b0316611020565b856111fd565b506001949350505050565b600061053a6113ae565b905090565b6000610553836001600160a01b0316611020565b9250600061056a335b6001600160a01b0316611020565b90506104d581858561057c8589610f12565b610586919061251d565b611067565b60004382106105e15760405162461bcd60e51b815260206004820152601f60248201527f4552433230566f7465733a20626c6f636b206e6f7420796574206d696e65640060448201526064015b60405180910390fd5b61062060cd60006105fa866001600160a01b0316611020565b6001600160a01b03166001600160a01b0316815260200190815260200160002083611429565b9392505050565b610639826001600160a01b0316611020565b91506b019d971e4fe8401e7400000060fe5482610656919061251d565b11156106af5760405162461bcd60e51b815260206004820152602260248201527f465444546f6b656e3a20746f74616c20737570706c79206f766572666c6f77696044820152616e6760f01b60648201526084016105d8565b6106b98282611520565b8060fe60008282546106cb919061251d565b90915550506040518181526001600160a01b038316907f0f6798a560793a54c3bcfe86a93cde1e73087d944c0ea20544137d4121396885906020015b60405180910390a25050565b600061071e3361055c565b905061072a81836115aa565b806001600160a01b03167fcc16f5dbb4873280815c1ee09dbd06736cffcc184412cf7a71a0fdb75d397ca58360405161070791815260200190565b600060cc600061077d846001600160a01b0316611020565b6001600160a01b0390811682526020820192909252604001600020541692915050565b6107c36107ac3361055c565b6107be836001600160a01b0316611020565b6115c2565b50565b600061080060cd60006107e1856001600160a01b0316611020565b6001600160a01b03168152602081019190915260400160002054611642565b92915050565b60006033600061081e846001600160a01b0316611020565b6001600160a01b0316815260208101919091526040016000205492915050565b610850826001600160a01b0316611020565b9150600061085d3361055c565b905061086a838284611183565b61087483836115aa565b826001600160a01b0316816001600160a01b03167f3c7611a5be35512cb20a6f2f039b47efb0d70f9c538e3886fa3f3e9c32af924f846040516108b991815260200190565b60405180910390a3505050565b6000610800609960006108e1856001600160a01b0316611020565b6001600160a01b03166001600160a01b031681526020019081526020016000205490565b600054610100900460ff16158080156109255750600054600160ff909116105b8061093f5750303b15801561093f575060005460ff166001145b6109a25760405162461bcd60e51b815260206004820152602e60248201527f496e697469616c697a61626c653a20636f6e747261637420697320616c72656160448201526d191e481a5b9a5d1a585b1a5e995960921b60648201526084016105d8565b6000805460ff1916600117905580156109c5576000805461ff0019166101001790555b610a0b60405180604001604052806009815260200168232a22102a37b5b2b760b91b8152506040518060400160405280600381526020016211951160ea1b8152506116ab565b610a3560405180604001604052806009815260200168232a22102a37b5b2b760b91b8152506116e0565b80156107c3576000805461ff0019169055604051600181527f7f26b83ff96e1f2b6a682f133852f6798a09c465da95921460cefb38474024989060200160405180910390a150565b6000438210610ace5760405162461bcd60e51b815260206004820152601f60248201527f4552433230566f7465733a20626c6f636b206e6f7420796574206d696e65640060448201526064016105d8565b61080060ce83611429565b60606037805461042b906124d2565b6000610afc826001600160a01b0316611020565b6001600160a01b038116600090815260cd60205260409020549092508015610b73576001600160a01b038316600090815260cd60205260409020610b41600183612535565b81548110610b5157610b5161254c565b60009182526020909120015464010000000090046001600160e01b0316610b76565b60005b6001600160e01b03169392505050565b6000610b9a836001600160a01b0316611020565b92506000610ba73361055c565b90506000610bb58286610f12565b905083811015610c155760405162461bcd60e51b815260206004820152602560248201527f45524332303a2064656372656173656420616c6c6f77616e63652062656c6f77604482015264207a65726f60d81b60648201526084016105d8565b6105258286868403611067565b6000336104d5610c3182611020565b61051f866001600160a01b0316611020565b610c55866001600160a01b0316611020565b955083421115610ca75760405162461bcd60e51b815260206004820152601d60248201527f4552433230566f7465733a207369676e6174757265206578706972656400000060448201526064016105d8565b6000610d2b61055c610d237fe48329057bfd03d55e49b547132e39cffd9c1820ad7b9d4c5307691425d15adf8a8a8a604051602001610d0894939291909384526001600160a01b039290921660208401526040830152606082015260800190565b6040516020818303038152906040528051906020012061172a565b868686611778565b9050610d36816117a0565b8614610d845760405162461bcd60e51b815260206004820152601960248201527f4552433230566f7465733a20696e76616c6964206e6f6e63650000000000000060448201526064016105d8565b610d8e81886115c2565b50505050505050565b610da9876001600160a01b0316611020565b965083421115610dfb5760405162461bcd60e51b815260206004820152601d60248201527f45524332305065726d69743a206578706972656420646561646c696e6500000060448201526064016105d8565b60007f6e71edae12b1b97f4d1f60370fef10105fa2faae0126114a169c64845d6126c9888888610e2a8c6117a0565b6040805160208101969096526001600160a01b0394851690860152929091166060840152608083015260a082015260c0810186905260e0016040516020818303038152906040528051906020012090506000610e858261172a565b90506000610e9861055c83888888611778565b9050896001600160a01b0316816001600160a01b031614610efb5760405162461bcd60e51b815260206004820152601e60248201527f45524332305065726d69743a20696e76616c6964207369676e6174757265000060448201526064016105d8565b610f068a8a8a611067565b50505050505050505050565b600060346000610f2a856001600160a01b0316611020565b6001600160a01b03166001600160a01b031681526020019081526020016000206000610f5e846001600160a01b0316611020565b6001600160a01b031681526020810191909152604001600020549392505050565b604080518082019091526000808252602082015260cd6000610fa9856001600160a01b0316611020565b6001600160a01b03166001600160a01b031681526020019081526020016000208263ffffffff1681548110610fe057610fe061254c565b60009182526020918290206040805180820190915291015463ffffffff8116825264010000000090046001600160e01b0316918101919091529392505050565b600080600061102e846117c8565b915091508161103f57509192915050565b60008061104b83611806565b915091508161105e575093949350505050565b95945050505050565b6001600160a01b0383166110c95760405162461bcd60e51b8152602060048201526024808201527f45524332303a20617070726f76652066726f6d20746865207a65726f206164646044820152637265737360e01b60648201526084016105d8565b6001600160a01b03821661112a5760405162461bcd60e51b815260206004820152602260248201527f45524332303a20617070726f766520746f20746865207a65726f206164647265604482015261737360f01b60648201526084016105d8565b6001600160a01b0383811660008181526034602090815260408083209487168084529482529182902085905590518481527f8c5be1e5ebec7d5bd14f71427d1e84f3dd0314c0f7b2291e5b200ac8c7c3b92591016108b9565b600061118f8484610f12565b905060001981146111f757818110156111ea5760405162461bcd60e51b815260206004820152601d60248201527f45524332303a20696e73756666696369656e7420616c6c6f77616e636500000060448201526064016105d8565b6111f78484848403611067565b50505050565b6001600160a01b0383166112615760405162461bcd60e51b815260206004820152602560248201527f45524332303a207472616e736665722066726f6d20746865207a65726f206164604482015264647265737360d81b60648201526084016105d8565b6001600160a01b0382166112c35760405162461bcd60e51b815260206004820152602360248201527f45524332303a207472616e7366657220746f20746865207a65726f206164647260448201526265737360e81b60648201526084016105d8565b6001600160a01b0383166000908152603360205260409020548181101561133b5760405162461bcd60e51b815260206004820152602660248201527f45524332303a207472616e7366657220616d6f756e7420657863656564732062604482015265616c616e636560d01b60648201526084016105d8565b6001600160a01b0380851660008181526033602052604080822086860390559286168082529083902080548601905591517fddf252ad1be2c89b69c2b068fc378daa952ba7f163c4a11628f55a4df523b3ef9061139b9086815260200190565b60405180910390a36111f7848484611875565b600061053a7f8b73c3c69bb8fe3d512ecc4cf759cc79239f7b179b0ffacaa9a75d522b39400f6113dd60655490565b6066546040805160208101859052908101839052606081018290524660808201523060a082015260009060c0016040516020818303038152906040528051906020012090509392505050565b81546000908181600581111561148357600061144484611890565b61144e9085612535565b600088815260209020909150869082015463ffffffff16111561147357809150611481565b61147e81600161251d565b92505b505b808210156114d05760006114978383611975565b600088815260209020909150869082015463ffffffff1611156114bc578091506114ca565b6114c781600161251d565b92505b50611483565b801561150a576114f3866114e5600184612535565b600091825260209091200190565b5464010000000090046001600160e01b031661150d565b60005b6001600160e01b03169695505050505050565b61152a8282611990565b6035546001600160e01b03101561159c5760405162461bcd60e51b815260206004820152603060248201527f4552433230566f7465733a20746f74616c20737570706c79207269736b73206f60448201526f766572666c6f77696e6720766f74657360801b60648201526084016105d8565b6111f760ce611a5983611a65565b6115b48282611bb9565b6111f760ce611cf483611a65565b60006115cd83610765565b905060006115da84610806565b6001600160a01b03858116600081815260cc602052604080822080546001600160a01b031916898616908117909155905194955093928616927f3134e8a2e6d97e929a7e54011ea5485d7d196dd5f0ba4d4ef95803e8e3fc257f9190a46111f7828483611d00565b600063ffffffff8211156116a75760405162461bcd60e51b815260206004820152602660248201527f53616665436173743a2076616c756520646f65736e27742066697420696e203360448201526532206269747360d01b60648201526084016105d8565b5090565b600054610100900460ff166116d25760405162461bcd60e51b81526004016105d890612562565b6116dc8282611e3d565b5050565b600054610100900460ff166117075760405162461bcd60e51b81526004016105d890612562565b6107c381604051806040016040528060018152602001603160f81b815250611e8b565b60006108006117376113ae565b8360405161190160f01b6020820152602281018390526042810182905260009060620160405160208183030381529060405280519060200120905092915050565b600080600061178987878787611ecc565b9150915061179681611f90565b5095945050505050565b6001600160a01b03811660009081526099602052604090208054600181018255905b50919050565b60008073ffffffffffffffffffffffff0000000000000000831660ff60981b811415611800576001925067ffffffffffffffff841691505b50915091565b600080826000526016600a602060006002607f60991b015afa9150600051806001600160a01b031691508060a01c61ffff16905061040a811461184c5760009250600091505b5081158061185b57503d601614155b1561186b57506000928392509050565b915091565b505050565b61187061188184610765565b61188a84610765565b83611d00565b60008161189f57506000919050565b600060016118ac846120de565b901c6001901b905060018184816118c5576118c56125ad565b048201901c905060018184816118dd576118dd6125ad565b048201901c905060018184816118f5576118f56125ad565b048201901c9050600181848161190d5761190d6125ad565b048201901c90506001818481611925576119256125ad565b048201901c9050600181848161193d5761193d6125ad565b048201901c90506001818481611955576119556125ad565b048201901c90506106208182858161196f5761196f6125ad565b04612172565b600061198460028484186125c3565b6106209084841661251d565b6001600160a01b0382166119e65760405162461bcd60e51b815260206004820152601f60248201527f45524332303a206d696e7420746f20746865207a65726f20616464726573730060448201526064016105d8565b80603560008282546119f8919061251d565b90915550506001600160a01b0382166000818152603360209081526040808320805486019055518481527fddf252ad1be2c89b69c2b068fc378daa952ba7f163c4a11628f55a4df523b3ef910160405180910390a36116dc60008383611875565b6000610620828461251d565b82546000908190818115611ab257611a82876114e5600185612535565b60408051808201909152905463ffffffff8116825264010000000090046001600160e01b03166020820152611ac7565b60408051808201909152600080825260208201525b905080602001516001600160e01b03169350611ae784868863ffffffff16565b9250600082118015611aff5750805163ffffffff1643145b15611b4457611b0d83612188565b611b1c886114e5600186612535565b80546001600160e01b03929092166401000000000263ffffffff909216919091179055611baf565b866040518060400160405280611b5943611642565b63ffffffff168152602001611b6d86612188565b6001600160e01b0390811690915282546001810184556000938452602093849020835194909301519091166401000000000263ffffffff909316929092179101555b5050935093915050565b6001600160a01b038216611c195760405162461bcd60e51b815260206004820152602160248201527f45524332303a206275726e2066726f6d20746865207a65726f206164647265736044820152607360f81b60648201526084016105d8565b6001600160a01b03821660009081526033602052604090205481811015611c8d5760405162461bcd60e51b815260206004820152602260248201527f45524332303a206275726e20616d6f756e7420657863656564732062616c616e604482015261636560f01b60648201526084016105d8565b6001600160a01b03831660008181526033602090815260408083208686039055603580548790039055518581529192917fddf252ad1be2c89b69c2b068fc378daa952ba7f163c4a11628f55a4df523b3ef910160405180910390a361187083600084611875565b60006106208284612535565b816001600160a01b0316836001600160a01b031614158015611d225750600081115b15611870576001600160a01b03831615611db0576001600160a01b038316600090815260cd602052604081208190611d5d90611cf485611a65565b91509150846001600160a01b03167fdec2bacdd2f05b59de34da9b523dff8be42e5e38e818c82fdb0bae774387a7248383604051611da5929190918252602082015260400190565b60405180910390a250505b6001600160a01b03821615611870576001600160a01b038216600090815260cd602052604081208190611de690611a5985611a65565b91509150836001600160a01b03167fdec2bacdd2f05b59de34da9b523dff8be42e5e38e818c82fdb0bae774387a7248383604051611e2e929190918252602082015260400190565b60405180910390a25050505050565b600054610100900460ff16611e645760405162461bcd60e51b81526004016105d890612562565b8151611e779060369060208501906121f1565b5080516118709060379060208401906121f1565b600054610100900460ff16611eb25760405162461bcd60e51b81526004016105d890612562565b815160209283012081519190920120606591909155606655565b6000807f7fffffffffffffffffffffffffffffff5d576e7357a4501ddfe92f46681b20a0831115611f035750600090506003611f87565b6040805160008082526020820180845289905260ff881692820192909252606081018690526080810185905260019060a0016020604051602081039080840390855afa158015611f57573d6000803e3d6000fd5b5050604051601f1901519150506001600160a01b038116611f8057600060019250925050611f87565b9150600090505b94509492505050565b6000816004811115611fa457611fa46125e5565b1415611fad5750565b6001816004811115611fc157611fc16125e5565b141561200f5760405162461bcd60e51b815260206004820152601860248201527f45434453413a20696e76616c6964207369676e6174757265000000000000000060448201526064016105d8565b6002816004811115612023576120236125e5565b14156120715760405162461bcd60e51b815260206004820152601f60248201527f45434453413a20696e76616c6964207369676e6174757265206c656e6774680060448201526064016105d8565b6003816004811115612085576120856125e5565b14156107c35760405162461bcd60e51b815260206004820152602260248201527f45434453413a20696e76616c6964207369676e6174757265202773272076616c604482015261756560f01b60648201526084016105d8565b600080608083901c156120f357608092831c92015b604083901c1561210557604092831c92015b602083901c1561211757602092831c92015b601083901c1561212957601092831c92015b600883901c1561213b57600892831c92015b600483901c1561214d57600492831c92015b600283901c1561215f57600292831c92015b600183901c156108005760010192915050565b60008183106121815781610620565b5090919050565b60006001600160e01b038211156116a75760405162461bcd60e51b815260206004820152602760248201527f53616665436173743a2076616c756520646f65736e27742066697420696e20326044820152663234206269747360c81b60648201526084016105d8565b8280546121fd906124d2565b90600052602060002090601f01602090048101928261221f5760008555612265565b82601f1061223857805160ff1916838001178555612265565b82800160010185558215612265579182015b8281111561226557825182559160200191906001019061224a565b506116a79291505b808211156116a7576000815560010161226d565b600060208083528351808285015260005b818110156122ae57858101830151858201604001528201612292565b818111156122c0576000604083870101525b50601f01601f1916929092016040019392505050565b80356001600160a01b03811681146122ed57600080fd5b919050565b6000806040838503121561230557600080fd5b61230e836122d6565b946020939093013593505050565b60008060006060848603121561233157600080fd5b61233a846122d6565b9250612348602085016122d6565b9150604084013590509250925092565b60006020828403121561236a57600080fd5b5035919050565b60006020828403121561238357600080fd5b610620826122d6565b803560ff811681146122ed57600080fd5b60008060008060008060c087890312156123b657600080fd5b6123bf876122d6565b955060208701359450604087013593506123db6060880161238c565b92506080870135915060a087013590509295509295509295565b600080600080600080600060e0888a03121561241057600080fd5b612419886122d6565b9650612427602089016122d6565b955060408801359450606088013593506124436080890161238c565b925060a0880135915060c0880135905092959891949750929550565b6000806040838503121561247257600080fd5b61247b836122d6565b9150612489602084016122d6565b90509250929050565b600080604083850312156124a557600080fd5b6124ae836122d6565b9150602083013563ffffffff811681146124c757600080fd5b809150509250929050565b600181811c908216806124e657607f821691505b602082108114156117c257634e487b7160e01b600052602260045260246000fd5b634e487b7160e01b600052601160045260246000fd5b6000821982111561253057612530612507565b500190565b60008282101561254757612547612507565b500390565b634e487b7160e01b600052603260045260246000fd5b6020808252602b908201527f496e697469616c697a61626c653a20636f6e7472616374206973206e6f74206960408201526a6e697469616c697a696e6760a81b606082015260800190565b634e487b7160e01b600052601260045260246000fd5b6000826125e057634e487b7160e01b600052601260045260246000fd5b500490565b634e487b7160e01b600052602160045260246000fdfea264697066735822122032ab7ee98ba9d42d35c772b5212c971533f5b93556b85a83ff19eb0920f8451064736f6c63430008090033",
  "linkReferences": {},
  "deployedLinkReferences": {}
}